:100000000C94EC070C9433080C9433080C943308CC
:100010000C9433080C9433080C9433080C94330874
:100020000C9433080C9433080C940F230C94E223A3
:100030000C941D1A0C9433080C9433080C94330858
:100040000C9433080C9433080C9433080C94330844
:100050000C9433080C947E1A0C9433080C943308D7
:100060000C9433080C9433080C9433080C94330824
:100070000C9433080C9433080C9433080C94330814
:100080000C9433080C9433080C9433080C94330804
:100090000C9433080C9433080C9433080C943308F4
:1000A0000C9433080C9433080C9433082900000096
:1000B0003A003B003C003D003E003F004000410054
:1000C000420043004400450001515F0060006100B0
:1000D00035001E001F002000210022002300240004
:1000E0002500260027002D002E0000002A005C00BD
:1000F0005D005E002B00000014001A0008001500CF
:1001000017001C0018000C00120013002F00300014
:10011000310059005A005B0039000000040016004D
:10012000070009000A000B000D000E000F0033004D
:100130003400280000000000620063000000E100BD
:100140001D001B00060019000500110010003600FC
:10015000370038000000E1000000000052000000FD
:10016000E0000000E300E2000000000000002C00BE
:1001700000000000E6000000E7007600E400500008
:1001800051004F0000700000A800AA00A900B200B2
:10019000AD00AC00AE00AB00327047004800460036
:1001A00001004A0052004B00010001000100010063
:1001B0000100010001000100010001000100307098
:1001C000317000005300500001004F00010000009A
:1001D0000100010001000100010001000100010017
:1001E000010001000100010001004D0051004E001E
:1001F00001000000010001000100010001000100F8
:1002000001000100010001000100010000000000E8
:1002100001000100000001000100010001000100D7
:1002200001000100010001000100010000000100C7
:1002300000000000010000000100000001000100BA
:1002400000000000000001000000000001000000AC
:100250000100010001000100010001000100000097
:100260000100010001000100010001000100010086
:100270000100010001000100010001000100010076
:100280000100010001000100010001000100010066
:100290000100010001000100010000000100010057
:1002A0000100010001000000010001000100010047
:1002B0000100010001000100010001000100010036
:1002C0000100010001000100010000000100010027
:1002D0000100010001000100010001000100010016
:1002E0000100010000000000010001000000010009
:1002F00001000100010001000100010001000100F6
:1003000001000100000001000000000001000000E9
:1003100001000000010001000000000000000100D9
:1003200000000000010000000100010001000100C8
:1003300001000100010000000100010001000100B6
:1003400001000100010001000100010001000100A5
:100350000100010001000100010001000100010095
:100360000100010001000100010001000100010085
:100370000100000001000100010001000100000077
:100380000100010001000100010001000100010065
:100390000100010001000100010001000100010055
:1003A0000100000001000100010001000100010046
:1003B0000100010001000100010001000000000037
:1003C0000100010000000100010001000100010026
:1003D0000100010001000100010001000000010016
:1003E0000000000001000000010000000100010009
:1003F00000000000000001000000000001000000FB
:1004000001000100010001000100010001000000E5
:1004100001000100010001000100010001000100D4
:1004200001000100010001000100010001000100C4
:1004300001000100010001000100010001000100B4
:1004400001000100010001000100000001000100A5
:100450000100010001000000010001000100010095
:100460000100010001000100010001000100010084
:100470000100010001000100010000000100010075
:100480000100010001000100010001000100010064
:100490000100010000000000010001000000010057
:1004A0000100010001000100010001000100010044
:1004B0000100010000000100000000000100000038
:1004C0000100000001000100000000000000010028
:1004D0000000000001000000010001000100010017
:1004E0000100010001000000010001000100010005
:1004F00001000100010001000100010001000100F4
:1005000001000100010001000100010001000100E3
:1005100001000100010001000100010001000100D3
:1005200001000000010001000100010001000000C5
:1005300001000100010001000100010001000100B3
:1005400001000100010001000100010001000100A3
:100550000100000001000100010001000100010094
:100560000100010001000100010001000000000085
:100570000100010000000100010001000100010074
:100580000100010001000100010001000000010064
:100590000000000001000000010000000100010057
:1005A0000000000000000100000000000100000049
:1005B0000100010001000100010001000100000034
:1005C0000100010001000100010001000100010023
:1005D0000100010001000100010001000100010013
:1005E0000100010001000100010001000100010003
:1005F00001000100010001000100000001000100F4
:1006000001000100010000000100010001000100E3
:1006100001000100010001000100010001000100D2
:1006200001000100010001000100000001000100C3
:1006300001000100010001000100010001000100B2
:1006400001000100000000000100010000000100A5
:100650000100010001000100010001000100010092
:100660000100010000000100000000000100000086
:100670000100000001000100000000000000010076
:100680000000000001000000010001000100010065
:100690000100010001000000010001000100010053
:1006A0000100010001000100010001000100010042
:1006B0000100010001000100010001000100010032
:1006C0000100010001000100010001000100010022
:1006D0000100000001000100010001000100000014
:1006E0000100010001000100010001000100010002
:1006F00001000100010001000100010001000100F2
:1007000001000000010001000100010001000100E2
:1007100001000100010001000100010000000000D3
:1007200001000100000001000100010001000100C2
:1007300001000100010001000100010000000100B2
:1007400000000000010000000100000001000100A5
:100750000000000000000100000000000100000097
:100760000100010001000100010001000100000082
:100770000100010001000100010001000100010071
:100780000100010001000100010001000100010061
:100790000100010001000100010001000100010051
:1007A0000100010001000100010000000100010042
:1007B0000100010001000000010001000100010032
:1007C0000100010001000100010001000100010021
:1007D0000100010001000100010000000100010012
:1007E0000100010001000100010001000100010001
:1007F00001000100000000000100010000000100F4
:1008000001000100010001000100010001000100E0
:1008100001000100000001000000000001000000D4
:1008200001000000010001000000000000000100C4
:1008300000000000010000000100010001000100B3
:1008400001000100010000000100010001000100A1
:100850000100010001000100010001000100010090
:100860000100010001000100010001000100010080
:100870000100010001000100010001000100010070
:100880000100000001000100010001000100000062
:100890000100010001000100010001000100010050
:1008A0000100010001000100010001000100010040
:1008B0000100000001000100010001000100010031
:1008C0000100010001000100010001000000000022
:1008D0000100010000000100010001000100010011
:1008E0000100010001000100010001000000010001
:1008F00000000000010000000100000001000100F4
:1009000000000000000001000000000001000000E5
:1009100001000100010001000100010001000000D0
:1009200001000100010001000100010001000100BF
:1009300001000100010001000100010001000100AF
:10094000010001000100010001000100010001009F
:100950000100010001000100010000000100010090
:100960000100010001000000010001000100010080
:10097000010001000100010001000100010001006F
:100980000100010001000100010000000100010060
:10099000010001000100010001000100010001004F
:1009A0000100010000000000010001000000010042
:1009B000010001000100010001000100010001002F
:1009C0000100010000000100000000000100000023
:1009D0000100000001000100000000000000010013
:1009E0000000000001000000010001000100010002
:1009F00001000100010000000100010001000100F0
:100A000001000100010001000100010001000100DE
:100A100001000100010001000100010001000100CE
:100A200001000100010001000100010001000100BE
:100A300001000000010001000100010001000000B0
:100A4000010001000100010001000100010001009E
:100A5000010001000100010001000100010001008E
:100A6000010000000100010001000100010001007F
:100A70000100010001000100010001000000000070
:100A8000010001000000010001000100010001005F
:100A9000010001000100010001000100000001004F
:100AA0000000000001000000010000000100010042
:100AB0000000000000000100000000000100000034
:100AC000010001000100010001000100010000001F
:100AD000010001000100010001000100010001000E
:100AE00001000100010001000100010001000100FE
:100AF00001000100010001000100010001000100EE
:100B000001000100010001000100000001000100DE
:100B100001000100010000000100010001000100CE
:100B200001000100010001000100010001000100BD
:100B300001000100010001000100000001000100AE
:100B4000010001000100010001000100010001009D
:100B50000100010000000000010001000000010090
:100B6000010001000100010001000100010001007D
:100B70000100010000000100000000000100000071
:100B80000100000001000100000000000000010061
:100B90000000000001000000010001000100010050
:100BA000010001000100000001000100010001003E
:100BB000010001000100010001000100010001002D
:100BC000010001000100010001000100010001001D
:100BD000010001000100010001000100010001000D
:100BE00001000000010001000100010001000000FF
:100BF00001000100010001000100010001000100ED
:100C000001000100010001000100010001000100DC
:100C100001000000010001000100010001000100CD
:100C200001000100010001000100010000000000BE
:100C300001000100000001000100010001000100AD
:100C4000010001000100010001000100000001009D
:100C50000000000001000000010000000100010090
:100C60000000000000000100000000000100000082
:100C7000010001000100010001000100010000006D
:100C8000010001000100010001000100010001005C
:100C9000010001000100010001000100010001004C
:100CA000010001000100010001000100010001003C
:100CB000010001000100010001000000010001002D
:100CC000010001000100000001000100010001001D
:100CD000010001000100010001000100010001000C
:100CE00001000100010001000100000001000100FD
:100CF00001000100010001000100010001000100EC
:100D000001000100000000000100010000000100DE
:100D100001000100010001000100010001000100CB
:100D200001000100000001000000000001000000BF
:100D300001000000010001000000000000000100AF
:100D4000000000000100000001000100010001009E
:100D5000010001000100000001000100010001008C
:100D6000010001000100010001000100010001007B
:100D7000010001000100010001000100010001006B
:100D8000010001000100010001000100010001005B
:100D9000010000000100010001000100010000004D
:100DA000010001000100010001000100010001003B
:100DB000010001000100010001000100010001002B
:100DC000010000000100010001000100010001001C
:100DD000010001000100010001000100000000000D
:100DE00001000100000001000100010001000100FC
:100DF00001000100010001000100010000000100EC
:100E000000000000010000000100000001000100DE
:100E100000000000000001000000000001000000D0
:100E200001000100010001000100010012036B003C
:100E30006500790062006F006100720064000000CC
:100E4000160371006D006B006200750069006C0094
:100E500064006500720000000403090409026D00CB
:100E6000040100A0FA0904000001030101000921A6
:100E7000110100012240000705810308000A09044E
:100E800001000103010200092111010001224D00AE
:100E90000705820308000A0904020001030000009C
:100EA0000921110100012236000705830308000A09
:100EB00009040300010300000009211101000122BF
:100EC0003900070584032000011201100100000011
:100ED00008EDFE606001000102000105010906A1A4
:100EE00001050719E029E71500250195087501811D
:100EF00002050819012905950575019102950175ED
:100F00000391010507190029F71500250195F875CA
:100F1000018102C005010980A10185021601002698
:100F200003001A81002A8300751095018100C00515
:100F30000C0901A1018503160100269C021A01007B
:100F40002A9C02751095018100C005010902A101CA
:100F50000901A100050919012905150025019505BB
:100F6000750181029501750381010501093009317F
:100F70001581257F95027508810609381581257F21
:100F8000950175088106050C0A38021581257F95A3
:100F90000175088106C0C005010906A101050719F0
:100FA000E029E71500250195087501810295017575
:100FB000088101050819012905950575019102951A
:100FC00001750391010507190029FF150026FF008F
:100FD000950675088100C00011241FBECFEFDAE02E
:100FE000DEBFCDBF04B603FE27C080919002909172
:100FF0009102A0919202B09193028730904BA7404A
:10100000B04BD1F410929002109291021092920281
:101010001092930214BE84B7877F84BF0FB6F894F2
:10102000A8958091600088618093600010926000B4
:101030000FBEE0E0F8E3099511E0A0E0B1E0EEE9D1
:10104000FEE402C005900D92A034B107D9F722E06A
:10105000A0E4B1E001C01D92A039B207E1F70E94FF
:1010600065200C9421270C94000090E080E0089506
:101070000895089581E00895089581E008950C94FD
:101080003A080E945E122FEF84E39CE021508040DA
:101090009040E1F700C000000C94A11AEF92FF927B
:1010A0000F931F93CF93DF938C01FC01E080F180BD
:1010B0008091A401811140C082818823C1F1C701C0
:1010C0000E94E317C82F682FC7010E948C17B70131
:1010D0008C2F0E948609EC01B8010E943F088823EA
:1010E00009F44BC0B801CE010E948F0B882309F48C
:1010F00044C0C531F0E7DF0720F5C23080E7D807EC
:1011000008F04DC0C115E0E7DE0791F1C130D047CE
:10111000E1F181E08093420180934301C801DF91B6
:10112000CF911F910F91FF90EF900C943D08C70154
:101130000E94BA17C82FCBCFC7010E94E317B7018F
:10114000C8CFCC3380E7D80709F49BC0CD33D04754
:1011500001F7F8018281882309F4BAC01092430193
:101160000E944D1A909341018093400180E296C005
:10117000F801828181110E94410880E0DF91CF91C6
:101180001F910F91FF90EF900895F80182818823BD
:10119000A1F380915002816080935002EECFF8015C
:1011A0008281882309F4BACF0E949E19811102C05E
:1011B0000E9484190E94BB1990E090938202809350
:1011C0008102FE01E350F047809181028160E231AB
:1011D000F10538F4ED5DF84D0C94D1268091810233
:1011E000826080938102809181020E94BF190E94D7
:1011F0005E12C3CF809181028460F3CF809181021F
:101200008860EFCF809181028061EBCF8091810275
:101210008062E7CF809181028064E3CF8091810278
:101220008068DFCF809181028C60DBCF809181026A
:101230008E7FD7CF809181028D7FD3CF8091810225
:101240008B7FCFCF80918102877FCBCF809181022E
:101250008F7EC7CF809181028F7DC3CF8091810225
:101260008F7BBFCF809181028F77BBCF809181022E
:10127000837FB7CF90918102892F97FB87F98058A0
:10128000B0CFF8018281882361F0109242010E9460
:101290004D1A909341018093400182E00E94C30F58
:1012A0006CCF8091420181110FC0809140019091DB
:1012B00041010E94591A883C910530F486E20E944F
:1012C000980E86E20E94740F82E00E94CA0F55CFEA
:1012D0008091430181110FC08091400190914101A3
:1012E0000E94591A883C910530F487E20E94980EBA
:1012F00087E20E94740F80E2E8CF0C94DE0B0C941E
:10130000E00B0C943C080C9481090895972F70E031
:1013100022E1929F600D711D1124FB019CE6899FC3
:10132000E00DF11D1124EE0FFF1FE455FF4F8591D5
:1013300094910895FC01EE0FFF1FE45DF14F85913C
:10134000949108950E9486090E94130B9C018115B7
:1013500040E4940708F097C0211580E3380708F0AF
:10136000FAC0203E310508F074C0203C310508F079
:10137000E5C0283A310588F4253A310508F0E2C085
:101380002130310509F477C0C9010497813A9105EC
:1013900008F471C030E020E06EC0C901885A91099C
:1013A0004597C0F7283A310509F4FEC0293A3105BE
:1013B00009F4FDC02A3A310509F4FCC02B3A310585
:1013C00009F4FBC02C3A310509F4FAC02B3B310576
:1013D00009F4F9C02C3B310509F4F8C02D3A310568
:1013E00009F4F7C0203B310509F4F6C02E3A310567
:1013F00009F4F5C02F3A310509F4F4C0213B310559
:1014000009F4F3C0223B310509F4F2C0233B310556
:1014100009F4F1C0243B310509F4F0C0253B310546
:1014200009F4EFC0263B310509F4EEC0273B310536
:1014300009F4EDC0283B310509F4ECC0293B310526
:1014400009F4EBC02A3B310509F4EAC020E034E49A
:1014500012C0211590E2390780F42F3F310509F0C1
:1014600050F4283E310538F0C901805F910930659C
:10147000409708F08FCFC9010895C9019F700E945D
:101480009A099C01F8CF8115944508F041C02115B7
:1014900083E5380708F06AC0211592E5390738F569
:1014A000211541E5340708F05CC0211580E53807B7
:1014B00008F454C0C90134E0969587953A95E1F750
:1014C0008370422F46954695437090E2499FA00154
:1014D0001124582B822F837021E030E002C0220FAC
:1014E000331F8A95E2F7242B352B3C68C4CFC90102
:1014F0008370992741E050E002C0440F551F8A9540
:10150000E2F72695269580E2289F90011124EBCFE3
:10151000211596E5390748F4922F8827211535457E
:10152000C8F59C01246F306AA6CFC90190563F7060
:101530008115904108F02ECF30629DCFC901805CAB
:1015400091099DCF253A310549F1263A310549F5F2
:1015500022E830E490CF3327306C8DCF3F70306A73
:101560008ACF322F2227216F306A85CFC90183703D
:10157000992741E050E002C0440F551F8A95E2F7D9
:101580002695269580E2289F90011124242B352B47
:101590003A6871CF88279F719C01CECF21E830E453
:1015A0006ACF23E830E467CF22EE34E464CF29EE3B
:1015B00034E461CF2AEE34E45ECF25EB34E45BCF34
:1015C00026EB34E458CF23EB34E455CF24EB34E45A
:1015D00052CF27EB34E44FCF2CEC34E44CCF2DEC3E
:1015E00034E449CF23E835E446CF2AE835E443CF55
:1015F00022E935E440CF24E935E43DCF21E236E469
:101600003ACF23E236E437CF24E236E434CF25E282
:1016100036E431CF26E236E42ECF27E236E42BCF74
:101620002AE236E428CF803E910581F1C8F4813367
:10163000910509F462C048F48932910509F456C055
:101640008A32910509F460C0089589339105B9F093
:1016500082389105A1F08533910509F440C00895C1
:10166000863E910561F138F4823E9105B1F0833EEA
:101670009105E1F00895873E910551F1089520917B
:1016800081022370D9F080EE90E0089520918102CC
:1016900020FF14C089E390E008952091810222FF89
:1016A0000DC024FD09C083EE90E0089520918102D1
:1016B00022FD31C024FF02C090E080E00895209117
:1016C000810223FFFBCF24FDF7CF87EE90E0089542
:1016D0002091810223FFEECF86EE90E008952091C5
:1016E000810225FFEBCF89E290E0089520918102ED
:1016F00025FFE4CF85E390E008952091810226FF45
:10170000DDCF8AE290E008952091810226FFD6CFB6
:1017100081E390E0089582EE90E0089508950F939C
:101720001F93CF938C01FB018281811106C0C1E020
:101730008C2FCF911F910F910895C0915101C1112C
:1017400025C00531104799F70E948E0B81E08093E8
:1017500051010E944D1A9093500180934F011092B5
:1017600044011092460110924501109248011092D6
:10177000470110924A011092490110924C011092B7
:101780004B0110924E0110924D01D2CF80914F012A
:10179000909150010E94591A883C910540F6809121
:1017A0004401E82FF0E0EE0FFF1FEB5BFE4F1183CB
:1017B00000838F5F80934401C0E0BACF0C94380857
:1017C0000C94390885B7806885BF85B7806885BF68
:1017D000A5E2B1E061E070E08D91E82FE295EF7055
:1017E000F0E041A18F709B0101C0220F8A95EAF7BA
:1017F000922F9095942391A382A1822B82A381E0C2
:10180000AB32B80749F7A3E1B1E061E070E08D9138
:10181000E82FE295EF70F0E041A18F709B0101C0CD
:10182000220F8A95EAF7922F9095942391A382A193
:10183000822B82A381E0A532B80749F7EAE6F1E0FE
:10184000A2E5B1E082E891E0119211921192119219
:101850001D921D921D921D928E179F07A9F70C9441
:101860007D092F923F924F925F926F927F928F925B
:101870009F92AF92BF92CF92DF92EF92FF920F931F
:101880001F93CF93DF93CDB7DEB72B970FB6F894A6
:10189000DEBF0FBECDBF82E5282E81E0382E05E2E7
:1018A00011E01E830D8338862F82C12CD12C760146
:1018B000C394AF81B8858D909D90AD90BD90B88751
:1018C000AF83FD011292129212921292FB87EA8765
:1018D000AD81BE818D91BE83AD83E82FE295EF701F
:1018E000F0E091A18F7001E010E002C0000F111F25
:1018F0008A95E2F71A830983802F892B81A382A11D
:1019000000950987802382A310EA1A95F1F723E155
:1019100031E03C832B8390E080E0AB81BC817D9003
:10192000BC83AB83272D22952F7030E0D901909690
:101930005C90AA85BB854D915D916D917C91272D21
:101940002F7001E010E002C0000F111F2A95E2F78E
:101950009801252109F07AC097018601082E04C05C
:10196000000F111F221F331F0A94D2F728013901DB
:101970004429552966297729AA85BB854D935D930E
:101980006D937C93139701968231910531F681A175
:101990001985182311A382A1B9818B2B82A3EA8513
:1019A000FB8580819181A281B38188169906AA0660
:1019B000BB0649F0F1E0F09382010E944D1A90932A
:1019C0008401809383010F8118850A56114009F024
:1019D00070CF809182018823E9F0809183019091FA
:1019E00084010E94591A0697A8F02AE631E0F10115
:1019F00081919191A191B1911F01F90181939193ED
:101A0000A193B1939F01FAE62F16F1E03F0679F713
:101A1000109282010E947F0981E02B960FB6F89404
:101A2000DEBF0FBECDBFDF91CF911F910F91FF9011
:101A3000EF90DF90CF90BF90AF909F908F907F906E
:101A40006F905F904F903F902F900895412C512CB4
:101A500032018ECFCF93DF9300D000D0CDB7DEB769
:101A600094E0899FF0011124E659FE4F8081918115
:101A7000A281B381BC01CD010F900F900F900F9008
:101A8000DF91CF910895089590938A018093890101
:101A90000895E0918901F0918A01309721F0019039
:101AA000F081E02D099480E00895E0918901F091A2
:101AB0008A01309721F00280F381E02D0994089586
:101AC000E0918901F0918A01309721F00480F5813D
:101AD000E02D0994089520918701309188012817FD
:101AE000390771F09093880180938701E091890113
:101AF000F0918A01309721F00680F781E02D09945A
:101B0000089520918501309186012817390771F0D9
:101B10009093860180938501E0918901F0918A017B
:101B2000309721F00084F185E02D099408950895FF
:101B30000C94970D0E94441A0E94E20B0C940D1B0A
:101B40004F925F926F927F929F92AF92BF92CF928D
:101B5000DF92EF92FF920F931F93CF93DF9300D00A
:101B600000D00F92CDB7DEB70E94310C2CE8A22E28
:101B700021E0B22E10E000E0902E802F0E942A0D6E
:101B80006B017C01F50141905190619071905F0172
:101B90004C145D046E047F0409F475C080915002FA
:101BA00081FD0E94430D90E080E04C245D246E2472
:101BB0007F24B301A201082E04C07695679557953E
:101BC00047950A94D2F740FF59C089839A82412CE5
:101BD000512C3201439404C0440C551C661C771CE4
:101BE0008A95D2F7C420D520E620F72081E0CD28C1
:101BF000CE28CF2809F480E08B830E944D1A8160A3
:101C0000782F9D838C8349815A816B818D810E94BD
:101C10006F0E000F111F000F111FF801E457FE4F48
:101C200080819181A281B38184259525A625B72540
:101C300080839183A283B3830E94BA1D0E94490DC1
:101C400090918B018917B1F10E94490D80938B010E
:101C50000F900F900F900F900F90DF91CF911F91E9
:101C60000F91FF90EF90DF90CF90BF90AF909F903B
:101C70007F906F905F904F900C9483090196823112
:101C8000910509F096CF0F5F1F4F0630110509F03F
:101C900073CF8FEF89838A831B820E944D1A8160E4
:101CA000782F9D838C8349815A816B818D810E941D
:101CB0006F0EC2CF0F900F900F900F900F90DF918B
:101CC000CF911F910F91FF90EF90DF90CF90BF9039
:101CD000AF909F907F906F905F904F900895CF93BB
:101CE000DF93CDB7DEB72B970FB6F894DEBF0FBEEC
:101CF000CDBF4F83588769877A878B871E8285E09F
:101D0000FE013796DE01119601900D928A95E1F75A
:101D100049815A816B817C818D819E812B960FB682
:101D2000F894DEBF0FBECDBFDF91CF910C94E614C7
:101D3000882309F4D8C0823871F40E94490D81FDCE
:101D4000D2C089E30E948B180E94551989E30E9432
:101D5000C8180C945519833859F40E94490D80FD18
:101D6000C2C083E50E948B180E94551983E5EFCF0E
:101D7000843859F40E94490D82FDB5C087E40E9461
:101D80008B180E94551987E4E2CF9CEF980F913A87
:101D900018F40E948B18DDCF90E2980F983050F421
:101DA000877091E001C0990F8A95EAF7892F0E9408
:101DB0000C19CFCF9BE5980F933070F4853A31F032
:101DC000863A39F083E890E00C946B0D81E890E05E
:101DD000FBCF82E890E0F8CF98E5980F953108F0B6
:101DE00082C0883A09F440C0893A09F440C08A3A6E
:101DF00009F440C08B3A09F440C08C3A09F440C061
:101E00008B3B09F440C08C3B09F440C08D3A09F487
:101E100040C0803B09F440C08E3A09F440C08F3A7C
:101E200009F440C0813B09F440C0823B09F440C042
:101E3000833B09F440C0843B09F440C0853B09F46E
:101E400040C0863B09F440C0873B09F440C0883B52
:101E500009F440C0893B09F440C08A3B09F440C002
:101E600090E080E00C94810D82EE90E0FBCF89EE53
:101E700090E0F8CF8AEE90E0F5CF85EB90E0F2CFDE
:101E800086EB90E0EFCF83EB90E0ECCF84EB90E03B
:101E9000E9CF87EB90E0E6CF8CEC90E0E3CF8DECE0
:101EA00090E0E0CF83E891E0DDCF8AE891E0DACFFF
:101EB00082E991E0D7CF84E991E0D4CF81E292E04A
:101EC000D1CF83E292E0CECF84E292E0CBCF85E225
:101ED00092E0C8CF86E292E0C5CF87E292E0C2CF1F
:101EE0008AE292E0BFCF0895882309F44BC082387C
:101EF00071F40E94490D81FF45C089E30E948B184F
:101F00000E94551989E30E94C8180C94551983380A
:101F100059F40E94490D80FF35C083E50E948B185B
:101F20000E94551983E5EFCF843859F40E94490D7A
:101F300082FF28C087E40E948B180E94551987E40D
:101F4000E2CF9CEF980F913AF0F290E2980F983020
:101F500050F4877091E001C0990F8A95EAF7892FB4
:101F60000E941219D2CF9BE5980F933020F490E095
:101F700080E00C946B0D885A853120F490E080E06D
:101F80000C94810D0895882321F00E940C190C9463
:101F900055190895882321F00E9412190C9455199F
:101FA00008958F929F92AF92BF92DF92EF92FF922D
:101FB0000F931F93CF93DF9300D000D00F92CDB734
:101FC000DEB77C016D837983FC01058102950F707A
:101FD000128111110E942B190E948418D82E882377
:101FE00071F01123A1F08D81805E883080F082E055
:101FF0000E946E180E94841891E0D82ED926E9819B
:10200000E295EF70F0E0EB5CF84D0C94D126D12C0A
:10201000F6CF09810F70F981F07F11F00295007FF2
:102020001123B1F0002361F08D81805E883018F0BB
:102030002D81211109C0802F0E940C190E94551971
:102040008D810E94980E15C0802F0E941D19F6CF19
:102050008D810E94740F002361F08D81805E883035
:1020600018F03D81311129C0802F0E9412190E9461
:102070005519DD2009F4D3C10E94611880FDCFC13C
:10208000F70112820E945B180E94A416C7010E94E9
:1020900020120E945B180F900F900F900F900F90DE
:1020A000DF91CF911F910F91FF90EF90DF90BF9044
:1020B000AF909F908F900C94C616802F0E9423198A
:1020C000D6CF49814F70B42E5981507F503219F0CC
:1020D000B29480EFB8228D81882369F0813029F194
:1020E000112369F1002359F0F701858180FFA8CF02
:1020F0008F70858304C0112361F0011104C08B2D02
:102100000E94C30FB6CF8B2D0130D1F70E943F192B
:10211000B0CF011106C00E9442198B2D0E94CA0F38
:10212000A8CF013009F4A5CFF6CF112321F0063056
:1021300008F09FCFE4CF053008F09BCFEECF00230F
:1021400061F38D810E94740F94CF89818695869565
:10215000837069F0813009F08CCF8D819981937003
:10216000111102C090E080E00E94810D82CF8D812C
:1021700099819370111102C090E080E00E946B0D74
:1021800078CF8D81112329F00E94C81C0E94AF1DB9
:1021900070CF0E94301DFACF8981837009F05FC033
:1021A000111167CF2D81229526952770220F220FBE
:1021B0008D818F7090E0B0E0A0E04C015D01022EB7
:1021C00004C0880C991CAA1CBB1C0A94D2F7FD8180
:1021D00060E070E0CB01F4FF0FC06FE070E080E0E2
:1021E00090E004C0660F771F881F991F2A95D2F7C9
:1021F00060957095809590952981269526952370F8
:102200002D832230B1F0233019F19B01AC01282934
:1022100039294A295B2929833A834B835C833D8191
:1022200069817A818B819C813130B1F00E943116B5
:1022300020CF9B01AC01282939294A295B29298310
:102240003A834B835C83CA01B9010E945B1611CFAC
:102250000E943116C501B4010E9407160ACF869567
:10226000112311F089818170882309F402CF2D8117
:10227000229526952770220F220F8D818F7090E076
:10228000B0E0A0E04C015D01022E04C0880C991C56
:10229000AA1CBB1C0A94D2F73D8160E070E0CB0120
:1022A00034FF0FC06FE070E080E090E004C0660F84
:1022B000771F881F991F2A95D2F760957095809592
:1022C000909549814695469543704D834230B1F0D3
:1022D000433019F19B01AC01282939294A295B298E
:1022E00029833A834B835C833D8169817A818B8129
:1022F0009C813130B1F00E943717BBCE9B01AC01FD
:10230000282939294A295B2929833A834B835C830D
:10231000CA01B9010E946117ACCE0E943717C501EE
:10232000B4010E940D17A5CE3D81323F09F447C08C
:1023300080F4303F79F1313FD9F1832F805E8031D5
:10234000D0F0112309F456C001117ACE89818F7122
:1023500033C04D81433FD1F1443F99F7112309F434
:102360003FC089818F7189830E94A41663E08981AF
:102370000E9465187ECE5D815F705D8389818F715B
:10238000112321F00E94A4168D81BACE0E94C61698
:102390008D81C4CE112341F0053008F06ACE8981C9
:1023A0008F710E94EB1665CE063008F062CEF7CF33
:1023B00089818F71112339F00E94A4165ACE898128
:1023C0008F711123C9F30E94C61653CE112329F031
:1023D00089818F710E948F164CCE0E94851649CE3E
:1023E00081E00E946E18023008F443CE82E00E9421
:1023F0006E183FCE0111A5CE89818F71E4CF49813E
:102400004F706D81C7010E9435080E94801531CE42
:1024100049814F706D81C7010E9485092ACE0F90B6
:102420000F900F900F900F90DF91CF911F910F9110
:10243000FF90EF90DF90BF90AF909F908F900895A6
:102440000F931F93CF93DF93EC018B819C81892B9A
:1024500029F08881998189238F3F29F4DF91CF91D9
:102460001F910F910895CE010E944E088823B1F369
:10247000688179818A810E9431188C010E948B17B2
:102480000E94FC15B801CE01DF91CF911F910F91F1
:102490000C94D10F0E942B190E943C190E94FE1827
:1024A0000E9455190E94A01E0E94AF1D90E080E07E
:1024B0000E946B0D90E080E00C94810D0E941A192F
:1024C0000C944A120E942518282F892F82958F700C
:1024D000903C80F48A30B0F4843020F4823090F460
:1024E00080E008958630E1F781E0203E88F0213FCA
:1024F000B9F70EC08C3011F08F3091F793FB88271D
:1025000080F9089581E0203F39F018F4203E40F72B
:102510000895243F29F7FCCF0895CF93DF9300D08F
:1025200000D00F92CDB7DEB70F900F900F900F90A5
:102530000F90DF91CF910895CF93DF9300D000D01B
:1025400000D0CDB7DEB726960FB6F894DEBF0FBE2B
:10255000CDBFDF91CF9108951F93CF93DF93E0918B
:10256000A50116E08091A6018E1304C0DF91CF91E2
:102570001F910895CE2FD0E01E9FF0011124E95540
:10258000FE4F4081518162817381848195810E94D7
:102590009C12FE013196E770E5CF4091D701509132
:1025A000D8016091D9017091DA018091DB0190919D
:1025B000DC010C949C121F93CF93DF938091DC017C
:1025C000807FC1F48091D9018823A1F08091A50179
:1025D000C091A6016091D7017091D8014091DA01B4
:1025E0005091DB01D62FD723DA01A095B09516E0E4
:1025F000C81304C0DF91CF911F91089590E0411559
:10260000510511F0DF3F31F401968770F1CF2A0FA9
:102610003B1F17C0189FF001199FF00D1124E955B9
:10262000FE4F21812713F0CF20812613EDCF228189
:102630002111EACF238134812417350740F3241B6D
:10264000350B283C310500F72091DC012F7020610B
:102650002093DC0126E0289FF001299FF00D112432
:10266000E455FE4F80818F708061808387ED91E01B
:102670000E942012DF91CF911F910C94AC129F9277
:10268000AF92BF92CF92DF92EF92FF920F931F9380
:10269000CF93DF93CDB7DEB72B970FB6F894DEBF9D
:1026A0000FBECDBF8C0185E0F801DE0117960190C9
:1026B0000D928A95E1F7D8014C9111965C91119792
:1026C0001296EC9012978091DA019091DB010097BD
:1026D00009F46BC12091D7013091D801632F622397
:1026E0006F3F09F462C11396CD90DC909090D901B0
:1026F000992009F4F8C0C816D90608F43FC0F601BD
:10270000E81BF90BCF01FF24F394883C910508F0F6
:10271000F12C87EDA82E81E0B82E8091DC01982F56
:10272000907FFF2009F4B7C0911180C0FE2C3513B3
:102730002AC0241328C0E11026C08F7080618093C6
:10274000DC010E94CD12C5010E9420128091DC01A3
:10275000D80115968C938F2D2B960FB6F894DEBF6B
:102760000FBECDBFDF91CF911F910F91FF90EF90E2
:10277000DF90CF90BF90AF909F90089580959095F7
:102780008C0D9D1DC0CFCD2829F0842F85238F3F30
:1027900009F019C180E0B82FB170DB2EE091A501DE
:1027A0002091A60136E080FD1CC0EE20A1F28091B0
:1027B000DC0181608093DC01F12CCDCF8E2F90E085
:1027C0003E9FF0011124E955FE4F6181651306C05B
:1027D0006081641303C062816E11E7CFFC01319602
:1027E000E770E213EBCF4F8358878F8198850E9463
:1027F0002518292F22952F70903260F0225F2F70BC
:10280000223078F49F7051F0F8019581907F31F477
:10281000D12C0AC09F7011F08823D1F3805E8830DC
:10282000B8F3C8010E942012FD2C95CF351306C0C5
:10283000241304C0D801EE2009F47BC04F835887CD
:102840008F8198850E946212882309F4B8C0EE2017
:1028500009F4B5C08091DC01803270F02091D7017D
:102860003091D8013A8329831B82DD82CC828E830A
:10287000CE0101960E94201286E0F801A7EDB1E09A
:1028800001900D928A95E1F70E94DB120E94CD1211
:10289000FF24F39460CF911113C07C2DDB86CA8690
:1028A0006E2D8B850E948D1287ED91E00E94201283
:1028B00086E0F50111928A95E9F70E94CD124BCF7F
:1028C0003513BCCF2413BACFE110B8CFD801159679
:1028D0008C93C8010E94201286E0F50111928A951E
:1028E000E9F7F92C38CFC816D90688F1B601681B6C
:1028F000790BCB01F12C883C910508F047C0FE2CE8
:10290000EE2009F45CC0351330C024132EC0809132
:10291000DC0180FD21C0982F907FF1F0D801159641
:102920008C931597903F39F0982F907F905F8F7020
:10293000892B15968C93C8010E94201286E0F8011D
:10294000A7EDB1E001900D928A95E1F7B6CF8095A1
:1029500090958C0D9D1DCECF86E0F801A7EDB1E0DE
:1029600001900D928A95E1F7F6CE4F8358878F81BB
:1029700098850E94621281117FCF8091DC01816075
:102980008093DC01C8010E942012E5CE7C2DDB86FD
:10299000CA866E2D8B850E948D1286E0E7EDF1E0F0
:1029A000DF011D928A95E9F788CFEE2041F04F8331
:1029B00058878F8198850E94621281115DCFC8016E
:1029C0000E94201265CF81E08E25E5CE1F93CF9324
:1029D000DF93CDB7DEB72C970FB6F894DEBF0FBEEE
:1029E000CDBF4F83588769877A878B879C87CE01B5
:1029F00007960E943F13882369F08A859B85892B5F
:102A000039F04F815885842F85238F3F09F071C09D
:102A100016E05FC086E0FE013796DE011196019058
:102A20000D928A95E1F78A859B85892B89F38885A4
:102A30009F8189238F3F61F32091A60130E0C90176
:102A40000196877099274091A5014817190671F4DE
:102A50000E945E121092A6011092A50186E0E7ED99
:102A6000F1E0DF011D928A95E9F7D2CF96E0929FBF
:102A7000D001939FB00D1124A955BE4FFE01319690
:102A800001900D929A95E1F78093A6010E94AC12F5
:102A9000BFCF819FC001112489559E4F0E943F13D3
:102AA0008823E9F0E091A5011E9FF0011124E9556A
:102AB000FE4F4081518162817381848195810E94A2
:102AC0009C128091A50190E00196877099278093D0
:102AD000A5018091A5019091A6018913DACF2C96CA
:102AE0000FB6F894DEBF0FBECDBFDF91CF911F911F
:102AF000089569857A858B859C850E949C1288CF74
:102B0000EF92FF920F931F93CF93DF938C01892B4A
:102B100089F0F12CEE24E394E8012196F8018491E8
:102B2000843709F457C0A0F4823009F43EC048F459
:102B30008130D1F0DF91CF911F910F91FF90EF90F5
:102B400008959CEF980F9037A8F70E94980E0AC03E
:102B5000853709F44CC09CE7980F903758F78F776A
:102B60000E94740F8E0116C00E5F1F4FFE018491EC
:102B700090E2980F983060F48770FE2D01C0FF0F2F
:102B80008A95EAF78F2F0E942E190E94551902C0CC
:102B90000E94980E8F2D815008F4BECFEFE9FFE020
:102BA0003197F1F700C00000F6CF0E5F1F4FFE0116
:102BB000849190E2980F983050F48770FE2D01C0F8
:102BC000FF0F8A95EAF78F2F0E943419DECF0E94FB
:102BD000740FE0CF0E5F1F4FFE01C491C150D0F2C1
:102BE0008FE99FE00197F1F700C00000F7CF0E5F7B
:102BF0001F4FFE01F490CECF08956093270270938B
:102C000028028093290290932A020C944A12CF93AF
:102C1000DF9300D000D0CDB7DEB769837A838B8392
:102C20009C838091270290912802A0912902B09163
:102C30002A0229813A814B815C81822B932BA42B20
:102C4000B52B8093270290932802A0932902B0937A
:102C50002A020F900F900F900F90DF91CF910C945C
:102C60004A12CF93DF9300D000D0CDB7DEB769838F
:102C70007A838B839C838091270290912802A09174
:102C80002902B0912A0229813A814B815C818223F9
:102C90009323A423B5238093270290932802A09323
:102CA0002902B0932A020F900F900F900F90DF919E
:102CB000CF910C944A12CF93DF9300D000D0CDB7C0
:102CC000DEB769837A838B839C83809127029091FE
:102CD0002802A0912902B0912A0229813A814B81D0
:102CE0005C8182279327A427B5278093270290939E
:102CF0002802A0932902B0932A020F900F900F9000
:102D00000F90DF91CF910C944A12109223021092EF
:102D1000240210922502109226020C944A1241E0DD
:102D200050E060E070E004C0440F551F661F771F3D
:102D30008A95D2F740932302509324026093250290
:102D4000709326020C944A12282F81E090E0A0E0B4
:102D5000B0E004C0880F991FAA1FBB1F2A95D2F7A5
:102D60004091230250912402609125027091260225
:102D7000842B952BA62BB72B8093230290932402B0
:102D8000A0932502B09326020C944A1241E050E031
:102D900060E070E004C0440F551F661F771F8A95DE
:102DA000D2F740955095609570958091230290914F
:102DB0002402A0912502B091260284239523A62304
:102DC000B7238093230290932402A0932502B0930B
:102DD00026020C944A12282F81E090E0A0E0B0E097
:102DE00004C0880F991FAA1FBB1F2A95D2F74091D4
:102DF00023025091240260912502709126028427BB
:102E00009527A627B7278093230290932402A093A7
:102E10002502B09326020C944A12CF93DF9300D080
:102E200000D0CDB7DEB769837A838B839C83809192
:102E3000230290912402A0912502B09126022981BB
:102E40003A814B815C81822B932BA42BB52B8093F1
:102E5000230290932402A0932502B09326020F90A0
:102E60000F900F900F90DF91CF910C944A12CF9357
:102E7000DF9300D000D0CDB7DEB769837A838B8330
:102E80009C838091230290912402A0912502B0910D
:102E9000260229813A814B815C8182239323A423DA
:102EA000B5238093230290932402A0932502B0932C
:102EB00026020F900F900F900F90DF91CF910C94FE
:102EC0004A12CF93DF9300D000D0CDB7DEB769832D
:102ED0007A838B839C838091230290912402A0911A
:102EE0002502B091260229813A814B815C8182279B
:102EF0009327A427B5278093230290932402A093BD
:102F00002502B09326020F900F900F900F90DF9143
:102F1000CF910C944A120895E82F22E1929FE00D80
:102F200011248E2F877041E001C0440F8A95EAF783
:102F3000E695E695E69585E0E89FF0011124E352D9
:102F4000FE4F30E020E070E05191DF011197CB019E
:102F5000022E02C0969587950A94E2F781708195BA
:102F60008527842385278C932F5F3F4F253031059C
:102F700059F70895E82F22E1929FE00D11249E2F2A
:102F80009770E695E695E69585E0E89FF0011124B7
:102F9000E352FE4F50E040E080E0219130E0092E06
:102FA00002C0369527950A94E2F721703327042E44
:102FB00001C0220F0A94EAF7822B4F5F5F4F453022
:102FC000510559F70895BF92CF92DF92EF92FF9289
:102FD0000F931F93CF93DF938C01C0902302D09067
:102FE0002402E0902502F090260280912702909121
:102FF0002802A0912902B0912A02C82AD92AEA2AD5
:10300000FB2ACFE1D0E0BC2ED701C6010C2E04C0B4
:10301000B695A795979587950A94D2F780FD0EC02F
:10302000219788F7B12C8B2DDF91CF911F910F91B4
:10303000FF90EF90DF90CF90BF900895B8018C2F54
:103040000E94A209019761F3EECFCF93DF93D82FAF
:10305000C92F0E94E3176D2F7C2FDF91CF910C9425
:10306000A2091F93CF93DF93162FD72F9091A4011E
:10307000992339F0862F972FDF91CF911F910C94D0
:103080002518882391F0862F972F0E94E317C82FC9
:10309000682F812F9D2F0E948C17612F7D2F8C2FE1
:1030A000DF91CF911F910C94A209862F972F0E9438
:1030B000BA17C82FF2CF80912B02859585958595FB
:1030C000089580912B028770089598E0899F900160
:1030D0001124622B60932B020C94A41690912B0266
:1030E0008095892380932B02282F277061F4282F45
:1030F000082E000C330B9217130629F08595859541
:1031000085950C94C616089590912B02977081E0D6
:1031100009F480E00895909112019923E1F09091D3
:10312000810297FF18C0E82FE695E695E695EF3106
:1031300039F12091000130910101E20FF32FF11DCF
:10314000877021E030E001C0220F8A95EAF7818183
:10315000822B818308952091000130910101F901B2
:1031600032969FEF40E05191851751F09F3F19F43F
:10317000511101C0942F4F5F4E31A9F79F3F09F4C1
:103180000895290F311D97FD3A95F901828308951D
:1031900090911201992301F19091810297FF1CC037
:1031A000E82FE695E695E695EF3139F1209100019B
:1031B00030910101E20FF32FF11D877021E030E023
:1031C000A90102C0440F551F8A95E2F7CA018095F4
:1031D000918189238183089520910001309101011B
:1031E000F9013296205E3F4F9191891303C0DF01B0
:1031F00011971C92E217F307B9F7089581E090E068
:10320000E0910001F0910101E80FF91F1082019691
:1032100080329105A9F7089590914F02982B9093D1
:103220004F020895982F909580914F0289238093A3
:103230004F02089510924F02089590914E02982BDC
:1032400090934E020895982F909580914E02892375
:1032500080934E02089510924E02089590914D026F
:10326000982B90934D020895982F909580914D0240
:10327000892380934D02089510924D020895809302
:103280002C02089510922C02089520910001309193
:103290000101F9013196205E3F4F80E0919191113B
:1032A0008F5FE217F307D1F70895E0910001F091E5
:1032B000010180914F028083E0910001F0910101B2
:1032C000808190914E02892B8083E0910001F091E2
:1032D0000101808190914D02892B808390912C0275
:1032E000992361F0E0910001F09101018081892B27
:1032F00080830E944519811110922C028091000157
:10330000909101010C94550D6DEE7EEF90E080E000
:103310000E940B2760E082E090E00E94F92660E0C6
:1033200083E090E00E94F92660E084E090E00E9453
:10333000F92660E085E090E00C94F92690E080E0CA
:103340000E94F3269C0181E02D3E3E4F09F080E073
:10335000089582E090E00C94EB26682F82E090E0E4
:103360000C94F92683E090E00C94EB26682F83E020
:1033700090E00C94F92684E090E00C94EB26682F02
:1033800084E090E00C94F92680918702843039F132
:103390001092510288E190E020E40FB6F894A895CD
:1033A000809360000FBE2093600080E00E9483093C
:1033B00083B7817F846083BF83B7816083BF789444
:1033C000889583B78E7F83BF0FB6F894A8958091B8
:1033D0006000886180936000109260000FBE0895C5
:1033E00008950895CF93DF9300D000D00F92CDB70A
:1033F000DEB70E94F0190E94310C0E94F1191D8263
:103400008D810E942A0D672B682B692B71F48D81A9
:103410008F5F8D838630A1F780E00F900F900F9023
:103420000F900F90DF91CF91089581E0F6CF0E9429
:103430005E120E94490D0C9483091F921FB61F92C1
:1034400011248F939F93AF93BF9380915102811169
:1034500013C080917D0290917E02A0917F02B09175
:1034600080024196A11DB11D80937D0290937E0242
:10347000A0937F02B0938002BF91AF919F918F91F3
:103480001F901FBE1F90189582E084BD93E095BDEC
:103490009AEF97BD80936E0008952FB7F8948091AE
:1034A0007D0290917E02A0917F02B09180022FBF99
:1034B0000895CF92DF92EF92FF929C014FB7F8945C
:1034C00080917D0290917E02A0917F02B091800256
:1034D0004FBF6C017D01EE24FF24A90170E060E084
:1034E000C416D506E606F70638F0821B930BFF904C
:1034F000EF90DF90CF9008950197F7CF1F921FB6FE
:103500001F9211248F939F93AF93BF9380917D025D
:1035100090917E02A0917F02B09180020196A11D40
:10352000B11D80937D0290937E02A0937F02B093A1
:103530008002BF91AF919F918F911F901FBE1F90EE
:1035400018950E949422F8942FEF87EA91E6215073
:1035500080409040E1F700C0000087E090EBDC0184
:103560008093900290939102A0939202B093930261
:1035700088E19CE00FB6F894A895809360000FBE98
:1035800090936000FFCFAF92BF92CF92DF92EF9205
:10359000FF920F931F93CF93C0E0A82EB12C8C2FD6
:1035A0000E942A0D6B017C0110E000E0D701C601EA
:1035B000002E04C0B695A795979587950A94D2F7E3
:1035C00080FF13C0602F7C2F80E00E948609A81620
:1035D000B90659F481E0CF911F910F91FF90EF90C0
:1035E000DF90CF90BF90AF9008950F5F1F4F0231D3
:1035F0001105E1F6CF5FC63091F680E0ECCFCF93B6
:10360000C82F8CE20E94C31A882321F08C2FCF91FF
:103610000C94C31A80E0CF910895CF93DF9300D02C
:1036200000D0CDB7DEB70E949E19811102C00E9462
:10363000841995E6998308C00E94310C8FE39CE9B8
:103640000197F1F700C00000A981A150A983A11141
:10365000F3CF89E20E94FF1A811110C18AE20E9411
:10366000FF1A81110E94841985E00E94FF1A8111BE
:103670000E94A11A0E94A9198093500287E00E941B
:10368000FF1A882371F08BE10E94FF1A882309F446
:10369000D1C090915002892F8D7F91FF82608093DD
:1036A0005002809150020E94AD190E94BB1990E017
:1036B000909382028093810280EE0E94FF1A8823F9
:1036C00041F090918102892F8E7F90FF81608093DD
:1036D000810289E30E94FF1A882341F090918102C0
:1036E000892F8D7F91FF82608093810282EE0E94FC
:1036F000FF1A882341F090918102892F8B7F92FFDE
:1037000084608093810286EE0E94FF1A882341F034
:1037100090918102892F877F93FF88608093810237
:1037200083EE0E94FF1A882341F090918102892F35
:103730008F7E94FF80618093810285E30E94FF1A4F
:10374000882341F090918102892F8F7D95FF8062BF
:103750008093810281E30E94FF1A882341F09091B7
:103760008102892F8F7B96FF80648093810281E1A3
:103770000E94FF1A882341F090918102892F97FBC4
:1037800087F9805880938102809181020E94BF193D
:1037900087E20E94FF1A89838EE10E94FF1A882324
:1037A00019F0B981B260B9838FE10E94FF1A8823B2
:1037B00019F029812460298380E20E94FF1A88235E
:1037C00019F039813860398381E20E94FF1A882319
:1037D00019F049814061498382E20E94FF1A8823DF
:1037E00019F059815062598383E20E94FF1A88239D
:1037F00019F089818064898384E20E94FF1A8823FA
:10380000B1F199819068998389810E94B6193981B3
:10381000232F30E050E040E029833A834B835C83E0
:10382000CA01B9010F900F900F900F90DF91CF91C7
:103830000C94FD158EE00E94FF1A882339F09091B8
:103840005002892F8B7F92FF846029CF80E10E94F4
:10385000FF1A90915002882329F0892F877F93FFC8
:1038600088601DCF892F8E7F90FF816018CFA9813E
:10387000A111CACF0E94B219282FCBCF0F900F9061
:103880000F900F90DF91CF9108958091540280FFA7
:1038900012C06091050185E0689FB0011124759503
:1038A00067957595679560387105A8F5611571057F
:1038B000A1F1862F089581FF09C06091050185E07F
:1038C000689FB001112475956795EDCF6091050152
:1038D00082FD0AC0809155028823D1F090910401A5
:1038E00060910501891728F085E0689FB0011124D7
:1038F000DACF869FB001112485E0869F9001879FD3
:10390000300D1124692F70E0C9010E94BD26CBCF74
:1039100065E070E0CECF8FE7089581E00895809153
:10392000540280FF0CC06091030170E075956795AB
:10393000759567956115710549F1862F089581FF89
:1039400006C06091030170E075956795F3CF6091B3
:10395000030182FD0BC0909155029923A1F0609163
:10396000020180910301961738F0682F70E06038EB
:10397000710500F38FE70895899FC001112470E05D
:103980000E94BD26F4CF61E070E0D7CF81E00895BA
:10399000803F31F40E94451C819580935802089520
:1039A000813F19F40E94451CF8CF823F31F40E94F8
:1039B000451C8195809357020895833F19F40E9416
:1039C000451CF8CF893F29F40E948F1C809359022F
:1039D00008958A3F21F40E948F1C8195F7CF8B3F79
:1039E00031F40E948F1C819580935A0208958C3F78
:1039F00019F40E948F1CF8CF843F31F48091560255
:103A00008160809356020895853F21F4809156028B
:103A10008260F7CF863F21F4809156028460F1CF17
:103A2000873F21F4809156028860EBCF883F21F4D4
:103A3000809156028061E5CF8D3F31F48091540230
:103A400081608093540208958E3F21F48091540246
:103A50008260F7CF8F3FB9F7809154028460F1CF35
:103A600090915702803F41F48091580287FD109257
:103A70005802992371F00895813F29F480915802EA
:103A80001816ACF3F6CF823F81F497FFF2CF109275
:103A900057028091580290915902892B90915A02B5
:103AA000892B49F7109255020895833F19F419168E
:103AB00074F3DFCF893F39F4809159021816CCF6A0
:103AC00010925902D6CF8A3F29F48091590287FF7C
:103AD000D0CFF6CF8B3F39F480915A0287FFC9CF00
:103AE00010925A02C6CF8C3F29F480915A021816C0
:103AF000BCF3BFCF843F31F4809156028E7F809318
:103B00005602B7CF853F21F4809156028D7FF7CFC3
:103B1000863F21F4809156028B7FF1CF873F21F4BD
:103B200080915602877FEBCF883F21F48091560227
:103B30008F7EE5CF8D3F31F4809154028E7F80934C
:103B4000540297CF8E3F21F4809154028D7FF7CF9E
:103B50008F3F09F08ECF809154028B7FF0CF86E5A6
:103B600092E00E94600D0E944D1A90935302809340
:103B7000520208951F93CF93DF9300D000D000D05E
:103B8000CDB7DEB780915202909153020E94591A2C
:103B9000AC01809155022091060130E0811106C0F0
:103BA000209107019AE0299F9001112442175307A1
:103BB00088F020915702A0915802A98310915902D0
:103BC000B0915A02BE8321110FC09A2F912B9B2BCB
:103BD00009F0B2C026960FB6F894DEBF0FBECDBF77
:103BE000DF91CF911F9108958F3F19F08F5F8093E0
:103BF0005502121624F40E94451C809357028091AE
:103C0000570287FF05C00E94451C8195809357028B
:103C10002981121624F40E94451C80935802809139
:103C2000580287FF05C00E94451C81958093580269
:103C300080915702882309F455C0309158023D8382
:103C4000332309F44FC0282F880F330B440B550B37
:103C500029833A834B835C83CA01B9010E94C4253E
:103C600023E333E343E35FE369837A838B839C83BA
:103C700069817A818B819C810E94282669837A835D
:103C80008B839C8369817A818B819C810E948C25A6
:103C9000609357028D81082E000C990BAA0BBB0B69
:103CA00089839A83AB83BC83BC01CD010E94C42568
:103CB00023E333E343E35FE369837A838B839C836A
:103CC00069817A818B819C810E94282669837A830D
:103CD0008B839C8369817A818B819C810E948C2556
:103CE00060935802111624F40E948F1C809359028D
:103CF0008091590287FF05C00E948F1C8195809397
:103D000059029E81191624F40E948F1C80935A0236
:103D100080915A0287FF05C00E948F1C8195809375
:103D20005A0226960FB6F894DEBF0FBECDBFDF91C4
:103D3000CF911F910C94AF1D8F3F09F057CF68CFE3
:103D400085E0E6E5F2E0DF011D928A95E9F7109241
:103D5000550210925402089580917B020895CF93EA
:103D6000DF9300D00F92CDB7DEB7209187022430C9
:103D700019F523E029838A839B832093E9008FEF41
:103D80009091E800815095FD06C095ED9A95F1F768
:103D900000008111F5CF8091E80085FF0DC050E053
:103DA00040E063E070E0CE0101960E940C2180911A
:103DB000E8008E778093E8000F900F900F90DF91CE
:103DC000CF910895CF93DF9300D00F92CDB7DEB798
:103DD0009C0180918702843031F582E089832058EC
:103DE00031093B832A8383E08093E9008FEF909130
:103DF000E800815095FD06C095ED9A95F1F7000019
:103E00008111F5CF8091E80085FF0DC050E040E0C2
:103E100063E070E0CE0101960E940C218091E800E1
:103E20008E778093E8000F900F900F90DF91CF91E5
:103E30000895209187022430F1F422E02093E900D4
:103E40002FEF3091E800215035FD06C035ED3A9551
:103E5000F1F700002111F5CF2091E80025FF0BC0FC
:103E600050E040E065E070E00E940C218091E800A5
:103E70008E778093E8000895CF93DF93D82FC92FD2
:103E8000809187028430F1F4909112019923E9F036
:103E90009091810297FF19C08093E9008FEF909174
:103EA000E800815095FD06C095E19A95F1F7000074
:103EB0008111F5CF8091E80050E040E060E270E0D1
:103EC00085FD1AC0DF91CF91089581E08093E900CC
:103ED0008FEF9091E800815095FD06C095ED9A9581
:103EE000F1F700008111F5CF8091E80085FFEACF5E
:103EF00050E040E068E070E08D2F9C2F0E940C2184
:103F00008091E8008E778093E80080E2ED2FFC2F0F
:103F1000ABE5B2E001900D928A95E1F7D3CF8091A5
:103F20008602811109C00E9494220E94F122809190
:103F3000E20084608093E200089510928602089562
:103F4000089508950C94171A42E061EC81E00E94F4
:103F5000102242E061EC82E00E94102242E061EC1B
:103F600083E00E94102242E261EC84E00C94102273
:103F700080918902893089F148F4823009F494C033
:103F8000833009F44FC0813041F008958A3009F43C
:103F90007BC08B3009F461C0089580918802813A1A
:103FA00009F03FC08091E800877F8093E80080910E
:103FB0008C0290918D02892B61F460E28BE592E096
:103FC00070E00E945B218091E8008B778093E8008D
:103FD000089560E090E080E0F3CF80918802813224
:103FE00001F580918C0290918D02009711F003975A
:103FF000C1F48091E800877F8093E8008091E80019
:1040000082FF0BC08091F10080937B028091E800D9
:104010008B778093E8000C94442280918702811171
:10402000EDCF089580918802813AD9F780918C0272
:1040300090918D02892BA9F78091E800877F80936A
:10404000E8008091E80080FFFCCF8091120180930E
:10405000F1008091E8008E77DCCF80918802813278
:1040600001F780918C0290918D02892BD1F680917D
:10407000E800877F8093E8000E94442280918A02B2
:10408000809312010C945E1280918802813249F66D
:104090008091E800877F8093E8000E94442280910D
:1040A0008B0280937C02089580918802813A09F006
:1040B000B8CF8091E800877F8093E8008091E80086
:1040C00080FFFCCF80917C02C2CF84B7877F84BF02
:1040D0000FB6F894A8958091600088618093600085
:1040E000109260000FBE80E8809361001092610022
:1040F0000E94980D0E9494220E94F1228091E20079
:1041000084608093E20078940E9471250E949A0D49
:1041100088E091E00E94440D80918702853019F07B
:104120000E94A00DF9CF0E94C419809185028823B6
:1041300099F30E94F219882379F30E94F620ECCFBC
:104140009C01DA01892F992783309105C1F068F429
:104150008130910509F445C0029761F48DE690E045
:104160002CE53EE02D933C93089581329105E1F0DA
:10417000829739F190E080E030E020E0F3CFC90190
:104180009927213059F08230910559F0E8E5FEE099
:10419000892B81F7849190E09F01E4CFE0E4FEE079
:1041A000F9CFECE2FEE0F6CF643020F7E62FF0E046
:1041B000EE0FFF1FE95CFE4F2081318189E090E026
:1041C000D1CF6430B8F670E0FB01EE0FFF1FE15D68
:1041D000FE4F20813181655D7E4FFB01808190E043
:1041E000C1CF82E190E029EC3EE0BCCF80E189BD07
:1041F00082E189BD09B400FEFDCF8091D8008F7D9A
:104200008093D8008091E00082608093E0008091EC
:10421000E00081FDFCCF0895AF92BF92CF92DF9274
:10422000FF920F931F93CF93DF936C01EB018A01F1
:104230000E946322F82E811123C00115110539F067
:10424000F80180819181C81BD90BC80ED91EB12CF1
:10425000A12C2097A9F08091E80085FD22C08091D3
:10426000E8008E778093E80001151105A1F0F801B0
:1042700080819181A80EB91EB182A08285E0F82EBE
:104280008F2DDF91CF911F910F91FF90DF90CF90F5
:10429000BF90AF9008950E9463228823D1F2F82E38
:1042A000EFCFF60181916F018093F1002197FFEF2D
:1042B000AF1ABF0ACECFFC01CB0120918E02309104
:1042C0008F022617370790F0009729F42091E80015
:1042D0002E772093E80040E0009751F4411108C088
:1042E0008091E80082FF31C080E00895C901F3CFDA
:1042F000209187022223A9F12530A9F12091E8001D
:1043000023FD2DC02091E80022FDEACF2091E80096
:1043100020FFE2CF3091F3002091F200009719F0D6
:104320002830310558F041E02830310509F040E0EF
:104330002091E8002E772093E800CECF4191409362
:10434000F10001972F5F3F4FE9CF809187028823CB
:1043500041F0853041F08091E80083FFC1CF81E0DA
:10436000089582E0089583E00895FC01CB01209137
:104370008E0230918F022617370790F0009729F4AC
:104380002091E8002E772093E80040E0009751F458
:10439000411108C08091E80082FF32C080E008959A
:1043A000C901F3CF209187022223B1F12530B1F169
:1043B0002091E80023FD2EC02091E80022FDEACFE5
:1043C0002091E80020FFE2CF3091F3002091F2002D
:1043D000009719F02830310558F041E028303105B8
:1043E00009F040E02091E8002E772093E800CECF3E
:1043F00044914093F100319601972F5F3F4FE8CFF2
:1044000080918702882341F0853041F08091E80057
:1044100083FFC0CF81E0089582E0089583E008958E
:10442000982F973028F08F708093E90081E00895ED
:104430009093E900242F762F50E0981731F0709177
:10444000EC002091ED005091F00021FD02C09F5F33
:10445000E8CF3091EB003E7F3093EB003091ED00E0
:104460003D7F3093ED003091EB0031603093EB00F5
:104470007093EC002093ED005093F0002091EE003B
:1044800027FDE5CF80E008958091880287FF13C063
:104490008091E80082FF06C08091E8008B778093CE
:1044A000E80004C0809187028111F2CF08958091C5
:1044B00087028823D9F38091E80080FFF8CF8091AC
:1044C000E8008E77ECCF2091E4003091E50095E68E
:1044D000A9012091EC00822F817020FF06C08091FD
:1044E000E80080FF06C080E008952091E80022FDEA
:1044F0001AC080918702882389F0853089F08091E5
:10450000EB0085FD0FC02091E4003091E5004217DB
:104510005307F9F29150E1F684E0089582E008959E
:1045200083E0089581E008950E9402230E940A23F7
:10453000E0EEF0E0808181608083E8EDF0E0808152
:104540008F77808319BCA7EDB0E08C918E7F8C9320
:1045500080818F7E80831092860208950F931F932F
:10456000CF93DF930E9402230E940A23C8EDD0E07C
:1045700088818F77888388818068888388818F7D10
:10458000888319BC109287021092830210928502D0
:104590001092840200EE10E0F80180818B7F80830E
:1045A00088818160888342E060E080E00E94102280
:1045B000E1EEF0E080818E7F8083E2EEF0E08081AA
:1045C00081608083808188608083F80180818E7F14
:1045D0008083888180618883DF91CF911F910F91C3
:1045E0000895E8EDF0E080818F7E8083E7EDF0E0D4
:1045F00080818160808384E082BF81E08093860235
:104600000C94AE22E8EDF0E080818E7F80831092E2
:10461000E20008951092DA001092E10008951F92CE
:104620000F920FB60F9211242F933F934F935F93E6
:104630006F937F938F939F93AF93BF93EF93FF936A
:104640008091E10082FF0BC08091E20082FF07C0F1
:104650008091E1008B7F8093E1000E947025809122
:10466000DA0080FF19C08091D80080FF15C08091CA
:10467000DA008E7F8093DA008091D90080FF94C0A9
:1046800080E189BD82E189BD09B400FEFDCF81E0F2
:10469000809387020E948F1F8091E10080FF19C0E4
:1046A0008091E20080FF15C08091E2008E7F8093B0
:1046B000E2008091E20080618093E2008091D80066
:1046C00080628093D80019BC85E0809387020E94A5
:1046D000A11F8091E10084FF29C08091E20084FF46
:1046E00025C080E189BD82E189BD09B400FEFDCF0E
:1046F0008091D8008F7D8093D8008091E1008F7EDB
:104700008093E1008091E2008F7E8093E2008091AF
:10471000E20081608093E20080918302882309F4A3
:1047200049C084E0809387020E94A21F8091E1002B
:1047300083FF29C08091E20083FF25C08091E100C2
:10474000877F8093E10082E080938702109283024A
:104750008091E1008E7F8093E1008091E2008E7F66
:104760008093E2008091E20080618093E20042E069
:1047700060E080E00E9410228091F00088608093C9
:10478000F0000E94A01FFF91EF91BF91AF919F9108
:104790008F917F916F915F914F913F912F910F90EA
:1047A0000FBE0F901F90189519BC109287020E949F
:1047B0009D1F72CF8091E30087FD02C081E0B2CFE0
:1047C00083E0B0CF1F920F920FB60F9211242F9358
:1047D0003F934F935F936F937F938F939F93AF9389
:1047E000BF93CF93DF93EF93FF93D091E900DF70F6
:1047F0008091EC00C82FC17080FDC0E81092E900E4
:104800008091F000877F8093F00078940E942624A6
:104810001092E9008091F00088608093F000CD2B29
:10482000CF70C093E900FF91EF91DF91CF91BF91DD
:10483000AF919F918F917F916F915F914F913F9138
:104840002F910F900FBE0F901F9018951F93CF932D
:10485000DF93CDB7DEB7AA970FB6F894DEBF0FBED1
:10486000CDBF88E892E0FC0101962091F100208301
:1048700022E080399207B9F70E94B81F8091E800C2
:1048800083FF16C180918802909189029A3008F0C6
:104890000FC1E92FF0E0EB5BF84D0C94D126803886
:1048A00081F0823809F004C180918C028F7080936E
:1048B000E9008091EB0085FB882780F91092E900E0
:1048C00006C080918402909185029111826090913E
:1048D000E800977F9093E8008093F1001092F10038
:1048E0008091E8008E77E0C0882309F4CEC0823042
:1048F00009F0DEC080918A028111D1C080918C02C2
:104900008F7009F4D5C08093E9002091EB0020FF5F
:10491000C6C0933031F48091EB0080628093EB004D
:10492000BEC09091EB0090619093EB0021E030E0ED
:1049300001C0220F8A95EAF72093EA001092EA005C
:104940008091EB008860EACF8111B2C010918A0299
:104950001F778091E3008078812B8093E300809122
:10496000E800877F8093E8000E9444228091E8005D
:1049700080FFFCCF8091E30080688093E30082E0B9
:10498000111183E08093870293C08058823008F031
:104990008FC080918A0290918B028C3D23E0920718
:1049A000A1F583E08A838AE289834FB7F894DE0118
:1049B000139620E03EE051E2E32FF0E050935700E1
:1049C000E49120FF03C0E295EF703F5FEF708E2F00
:1049D00090E0EA30C0F0C7968D939D932F5F24310D
:1049E00059F74FBF8091E800877F8093E8006AE223
:1049F00070E0CE0101960E945B218091E8008B77E8
:104A00008093E80055C0C096E7CFAE014F5F5F4F7F
:104A100060918C020E94A020BC01892B09F448C03F
:104A20008091E800877F8093E80089819A810E94C5
:104A3000B521E3CF8038E1F58091E800877F80934E
:104A4000E800809183028093F1004ACF811130C049
:104A500090918A02923060F58091E800877F809380
:104A6000E800909383020E9444228091830288236D
:104A700011F084E005C08091E30087FDFACF81E06A
:104A8000809387020E94A41F13C080918A02813004
:104A900079F481E0933009F080E0809385021092F0
:104AA000E9008091E800877F8093E8000E9444221B
:104AB0008091E80083FF0AC08091E800877F80939F
:104AC000E8008091EB0080628093EB00AA960FB61D
:104AD000F894DEBF0FBECDBFDF91CF911F91089537
:104AE0000895CF93809187028823A1F0C091E900B7
:104AF000CF709091EC00892F817090FD80E8C82BD9
:104B00001092E9008091E80083FD0E942624CF7076
:104B1000C093E900CF9108950E9493256894B11144
:104B20000C94222608950E94072688F09F5798F03B
:104B3000B92F9927B751B0F0E1F0660F771F881FA2
:104B4000991F1AF0BA95C9F714C0B13091F00E94BC
:104B50002126B1E008950C942126672F782F88270D
:104B6000B85F39F0B93FCCF3869577956795B395E3
:104B7000D9F73EF490958095709561957F4F8F4F52
:104B80009F4F0895E89409C097FB3EF49095809557
:104B9000709561957F4F8F4F9F4F9923A9F0F92F03
:104BA00096E9BB279395F695879577956795B79581
:104BB000F111F8CFFAF4BB0F11F460FF1BC06F5F67
:104BC0007F4F8F4F9F4F16C0882311F096E911C079
:104BD000772321F09EE8872F762F05C0662371F09A
:104BE00096E8862F70E060E02AF09A95660F771FAE
:104BF000881FDAF7880F9695879597F9089557FDDE
:104C00009058440F551F59F05F3F71F04795880F3A
:104C100097FB991F61F09F3F79F0879508951216D1
:104C200013061406551FF2CF4695F1DF08C016167D
:104C300017061806991FF1CF86957105610508942E
:104C40000895E894BB2766277727CB0197F9089545
:104C50000E943B260C94AC260E949E2638F00E94AF
:104C6000A52620F0952311F00C9495260C949B26F4
:104C700011240C9422260E94FF2570F3959FC1F306
:104C8000950F50E0551F629FF001729FBB27F00DFA
:104C9000B11D639FAA27F00DB11DAA1F649F66274F
:104CA000B00DA11D661F829F2227B00DA11D621F9E
:104CB000739FB00DA11D621F839FA00D611D221F58
:104CC000749F3327A00D611D231F849F600D211D3C
:104CD000822F762F6A2F11249F5750409AF0F1F0BF
:104CE00088234AF0EE0FFF1FBB1F661F771F881F28
:104CF00091505040A9F79E3F510580F00C949526A5
:104D00000C9422265F3FE4F3983ED4F38695779582
:104D10006795B795F795E7959F5FC1F7FE2B880FCD
:104D2000911D9695879597F9089597F99F6780E863
:104D300070E060E008959FEF80EC089500240A94ED
:104D40001616170618060906089500240A94121666
:104D50001306140605060895092E0394000C11F499
:104D6000882352F0BB0F40F4BF2B11F460FF04C046
:104D70006F5F7F4F8F4F9F4F089597FB072E16F45D
:104D8000009407D077FD09D00E94D72607FC05D0F4
:104D90003EF4909581959F4F0895709561957F4F52
:104DA0000895EE0FFF1F0590F491E02D0994AA1BC2
:104DB000BB1B51E107C0AA1FBB1FA617B70710F006
:104DC000A61BB70B881F991F5A95A9F78095909538
:104DD000BC01CD010895F999FECF92BD81BDF89A2D
:104DE000992780B50895A8E1B0E042E050E00C9426
:104DF0001327262FF999FECF92BD81BDF89A01970E
:104E000000B4021639F01FBA20BD0FB6F894FA9A12
:104E1000F99A0FBE08950196272F0E94FA260C9446
:104E2000F926DC01CB01FC01F999FECF06C0F2BDE9
:104E3000E1BDF89A319600B40D9241505040B8F758
:104E40000895F894FFCFEE08FA08FE080209060953
:104E50000A090E09120916091A091E09220926094A
:104E60002A092E09320936093A0909100910611078
:104E70006110A510C11039103910CC1039109411DF
:104E80009411FF113910391008124F247424582539
:0E4E900074245825A424C52458251A25262547
:104E9E002D022808140A321EAC1E3C1F191FE21EDA
:104EAE00AF1E0136376061626364656667909192EA
:104EBE009394959697303132333435404D36399739
:104ECE000F4A0F140FDB0E6E0E870EA00EB90E00DA
:00000001FF
